:100B5F004B312061727269766520736F6F6E210061
:100B6F00636F756E74646F776E3A30303A3035005C
:100B7F00636F756E74646F776E3A30303A3034004D
:100B8F00636F756E74646F776E3A30303A3033003E
:100B9F00636F756E74646F776E3A30303A3032002F
:100BAF00636F756E74646F776E3A30303A30310020
:100BBF004B312061727269766521004B3220617270
:100BCF007269766520736F6F6E21004B32206172F0
:100BDF007269766521004B332061727269766520E8
:100BEF00736F6F6E21004B332061727269766521CE
:100BFF00004B342061727269766520736F6F6E21BE
:100C0F00004B342061727269766521004275732D35
:100C1F0053746F702D426F61726400543A002D004F
:100C2F004E6578744275733A4B004E657874204B5D
:100C3F0031203A20004E657874204B32203A200044
:100C4F004E657874204B33203A20004E657874201F
:060C5F004B34203A200096
:1010C100751801751D067513307522207519027585
:1010D1001E06751440752340751A03751F07751593
:1010E10030752430751B04752008E4F5167525301C
:0110F10022DC
:1009EB007B017A0074172401F8E6F54B741C240183
:1009FB00F8E6C4540FF9FF7E007C037DE812086112
:100A0B00AC06AD07741C2401F8E6540F75F064A412
:100A1B002DFDEC35F0FC74122401F8E6C4540F756F
:100A2B00F00AA42DFFE5F03CFE74122401F8E65405
:100A3B000F7C002FF54DEC3EF54C74172401F8E6B6
:100A4B00540F2430F508750920E92430F50A741C7D
:100A5B002401F8E6540F2430F50B750C3A7412246C
:100A6B0001F8E6FFC4540F2430F50DEF540F24307A
:100A7B00F50EE4F50F0B741C2BF8E6F9C4540FFFBD
:100A8B007E007C037DE8120861AC06AD07E9540FCC
:100A9B0075F064A42DFDEC35F0FC74122BF8E6F91F
:100AAB00C4540F75F00AA42DFFE5F03CFEE9540F7A
:100ABB007C002FFFEC3EFED3E54D9FE54C9E500393
:100ACB00020B50741C2BF8E6C4540FF9FF7E007C0C
:100ADB00037DE8120861AC06AD07741C2BF8E654D5
:100AEB000F75F064A42DFDEC35F0FC74122BF8E6B9
:100AFB00C4540F75F00AA42DFFE5F03CFE74122BC5
:100B0B00F8E6540F7C002FF54DEC3EF54C74172B8B
:100B1B00F8E6540F2430F508750920E92430F50A5E
:100B2B00741C2BF8E6540F2430F50B750C3A741229
:100B3B002BF8E6FFC4540F2430F50DEF540F24307F
:100B4B00F50EE4F50F0BBB00010AEB64054A6003DD
:030B5B00020A810A
:010B5E002274
:10000E0075410175420112113D1211ED12000312DC
:10001E0010C11211D7E568B42308E567B45903126D
:10002E0010C1E566C4540FF5416542600685414234
:10003E0012124FE51D6568600302013DE513656709
:10004E00600302013D12124F7BFF7A0B795FE4FDD4
:10005E00FF120D527BFF7A0B796F7D01E4FF120DBB
:10006E0052758901D2AFD2A912122F7BFF7A0B796A
:10007E007F7D01E4FF120D52758901D2AFD2A91214
:10008E00122F7BFF7A0B798F7D01E4FF120D5275D3
:10009E008901D2AFD2A912122F7BFF7A0B799F7DE5
:1000AE0001E4FF120D52758901D2AFD2A912122F9F
:1000BE007BFF7A0B79AF7D01E4FF120D527589013A
:1000CE00D2AFD2A912122F12124F7BFF7A0B79BF29
:1000DE00E4FDFF120D527BFF7A0B79BF7D01E4FF29
:1000EE00120D527FE87E0312119E758901D2AFD296
:1000FE00A9121223E522540FFFE513540F2FFFE42C
:10010E0033FEC3EF940AEE64809480400674062595
:10011E0013F513E5222513F513C4540FC39406509B
:10012E0003020416051D74A02513F513020416E52B
:10013E001E65686003020232E51465676003020201
:10014E003212124F7BFF7A0B79CAE4FDFF120D5269
:10015E007BFF7A0B796F7D01E4FF120D52758901D9
:10016E00D2AFD2A912122F7BFF7A0B797F7D01E4D9
:10017E00FF120D52758901D2AFD2A912122F7BFF39
:10018E007A0B798F7D01E4FF120D52758901D2AF82
:10019E00D2A912122F7BFF7A0B799F7D01E4FF12F9
:1001AE000D52758901D2AFD2A912122F7BFF7A0B95
:1001BE0079AF7D01E4FF120D52758901D2AFD2A93C
:1001CE0012000012124F7BFF7A0B79DAE4FDFF1258
:1001DE000D527BFF7A0B79DA7D01E4FF120D527519
:1001EE008901D2AFD2A9121223E523540FFFE514D1
:1001FE00540F2FFFE433FEC3EF940AEE6480948015
:10020E00400674062514F514E5232514F514C4547C
:10021E000FC394065003020416051E74A02514F590
:10022E0014020416E51F65686003020327E51565D1
:10023E0067600302032712124F7BFF7A0B79E5E406
:10024E00FDFF120D527BFF7A0B796F7D01E4FF12D9
:10025E000D52758901D2AFD2A912122F7BFF7A0BE4
:10026E00797F7D01E4FF120D52758901D2AFD2A9BB
:10027E0012122F7BFF7A0B798F7D01E4FF120D5244
:10028E00758901D2AFD2A912122F7BFF7A0B799FFB
:10029E007D01E4FF120D52758901D2AFD2A912125F
:1002AE002F7BFF7A0B79AF7D01E4FF120D5275891A
:1002BE0001D2AFD2A912000012124F7BFF7A0B7936
:1002CE00F5E4FDFF120D527BFF7A0B79F57D01E40B
:1002DE00FF120D52758901D2AFD2A9121223E52455
:1002EE00540FFFE515540F2FFFE433FEC3EF940AAE
:1002FE00EE64809480400674062515F515E52425D8
:10030E0015F515C4540FC394065003020416051FA9
:10031E0074A02515F515020416E520656860030224
:10032E000416E5166567600302041612124F7BFF72
:10033E007A0C7900E4FDFF120D527BFF7A0B796F78
:10034E007D01E4FF120D52758901D2AFD2A91212AE
:10035E002F7BFF7A0B797F7D01E4FF120D52758999
:10036E0001D2AFD2A912122F7BFF7A0B798F7D01AA
:10037E00E4FF120D52758901D2AFD2A912122F7B52
:10038E00FF7A0B799F7D01E4FF120D52758901D220
:10039E00AFD2A912122F7BFF7A0B79AF7D01E4FF4A
:1003AE00120D52758901D2AFD2A912000012124F4E
:1003BE007BFF7A0C7910E4FDFF120D527BFF7A0C55
:1003CE0079107D01E4FF120D52758901D2AFD2A9C9
:1003DE00121223E525540FFFE516540F2FFFE433B9
:1003EE00FEC3EF940AEE64809480400674062516D0
:1003FE00F516E5252516F516C4540FC394064008C8
:10040E00052074A02516F516E54160076404600307
:10041E000205197BFF7A0C791BE4FDFF120D52E5E4
:10042E0068C4540F2430F532E568540F2430F53388
:10043E0075343AE567C4540F2430F535E567540F2B
:10044E002430F53675373AE566C4540F2430F53846
:10045E00E566540F2430F539E4F53AFB7A0079322B
:10046E007D01FF120D527BFF7A0C792A7D017F09E7
:10047E00120D52120E71E4FBFA79207841120656D3
:10048E0012079A8E438F44C3E543648094805018BC
:10049E00C3E49544F544E49543F5437BFF7A0C7928
:1004AE002D7D017F0A120D52AE43AF447C037DE8D1
:1004BE00120873AA04AB057D647C00AF03AE021272
:1004CE000873EF2430F5457D647C00AF03AE021255
:1004DE000873AA04AB057D0A7C00AF03AE021208B6
:1004EE0073EF2430F54675472E7D0A7C00AF03AEC0
:1004FE0002120873ED2430F548754943E4F54AFBC2
:10050E007A0079457D017F0B0205C5E541640160E6
:10051E0005E541B4051C1209EB7BFF7A0C792FE43B
:10052E00FDFF120D527B007A007908E4FD7F09026F
:10053E0005C5E541640260030205CB7BFF7A0C79A9
:10054E0039FDFF120D52E51DC4540F2430F526E57A
:10055E001D540F2430F52775283AE513C4540F2483
:10056E0030F529E513540F2430F52AE4F52BFB7AE8
:10057E00007926FD7F0A120D527BFF7A0C79447D9D
:10058E0001E4FF120D52E51EC4540F2430F52CE584
:10059E001E540F2430F52D752E3AE514C4540F2435
:1005AE0030F52FE514540F2430F530E4F531FB7A95
:1005BE0000792C7D017F0A120D52020020E5416464
:1005CE000360030200207BFF7A0C794FFDFF120DB2
:1005DE0052E51FC4540F2430F526E51F540F243066
:1005EE00F52775283AE515C4540F2430F529E5157D
:1005FE00540F2430F52AE4F52BFB7A007926FD7F83
:10060E000A120D527BFF7A0C795A7D01E4FF120D0E
:10061E0052E520C4540F2430F52CE520540F24301D
:10062E00F52D752E3AE516C4540F2430F52FE51628
:10063E00540F2430F530E4F531FB7A00792C7D012E
:08064E007F0A120D5202002088
:10117F00075F81838587898B8D0758808284868856
:0B118F008A8C076657290620230520E4
:10108C00E4FEC2B500C2B600D2B500EF1392B4EFC5
:10109C00C313FFD2B600C2B6000EBE08EEE4FEEDDE
:1010AC001392B4EDC313FDD2B600C2B6000EBE0847
:0410BC00EEC2B500CB
:0110C000220D
:100EEC00E4FEFDFBC2B500C2B600D2B500EF139212
:100EFC00B4EFC313FFD2B600C2B6000EBE08EEE4C8
:100F0C00FEA2B4E433FDC43333335480FFEBC3137C
:100F1C004FFBD2B600C2B6000EBE08E5C2B500D279
:0C0F2C00B600C2B400D2B400D2B5AF03CE
:010F38002296
:10113D00E4FCFD7F8E12108C74582CF8E6FF74665B
:10114D002CF8E6FD12108C0CBC07ED7D807F8E0215
:02115D00108CF4
:1011D700E4FC745F2CF8E6FF120EEC74662CF8A69C
:0511E700070CBC07ED40
:0111EC0022E0
:1011BC00C2A6C2A5C2A78F807F017E0012119ED24B
:0B11CC00A77F017E0012119EC2A72227
:0A111800AB4CAA4DA94E12081BFFB4
:10112200D2A6C2A5C2A78F807F017E0012119ED2D5
:0B113200A77F017E0012119EC2A722C1
:1011ED007F381211BC7F0C1211BC7F061211BC7F0F
:0411FD00010211BC1E
:05124F007F010211BC4B
:080D52008F4B8B4C8A4D894E3A
:100D5A00E4F54FEDD394014003020DE4E54B940F03
:100D6A005078EDC394015039AB4CAA4DA94E1208E4
:100D7A001B6067C37410954BFFE54FC39FE54F5047
:100D8A00062480254B8004254B24B0FF1211BC1287
:100D9A0011187401254EF54EE4354DF54D054F8079
:100DAA00C7AB4CAA4DA94E12081B602EC3741095EE
:100DBA004BFFE54FC39FE54F500624C0254B8004E7
:100DCA00254B2470FF1211BC1211187401254EF51F
:0A0DDA004EE4354DF54D054F80C77E
:010DE40022EC
:10120100C2B77F4B7E0012123BD2B77F027E000233
:02121100123B8E
:100F3900E4F55230B712E552C39414500B05527FB1
:100F4900017E0012123B80EBE552C3941440037FEB
:100F59000122E4F55220B712E552C39414500B054F
:100F6900527F017E0012123B80EBE552C39414407C
:060F7900037F01227F004E
:010F7F00224F
:10115F00E4F554C2B70000D2B7000030B70575549C
:0F116F00018003E4F5547F057E0012123BAF545C
:01117E00224E
:1010F200E4F552F553FFF55212115FEFC433333367
:101102005480FEE553C3134EF5530552E552C39482
:051112000840E5AF53A9
:0111170022B5
:02104D008F52C0
:10104F00E4F553F554F553E5525401F554E552C305
:10105F0013F552E554600FC2B70000D2B77F067E7A
:10106F000012123B800DC2B77F067E0012123BD2D8
:0C107F00B700000553E553C3940840CBB4
:01108B002242
:10121300121201120F397FCC12104D7F4402104D70
:07000300121201120F392255
:100E7100E4FFF54FF550F551121213121201120F42
:100E8100397FCC12104D7FBE12104D1210F28F4FD0
:100E91001210F2EFFE7C00E4254FF551EC3EF550C7
:100EA10054F8FEEEB4F821E551F4FFE550F4FEEFFD
:100EB1002401F551E43EF550FCAD51E4120761E423
:100EC100FBFA798078BD800FAC50AD51E412076117
:100ED100E4FBFA7980783D1206568F4E8E4D8D4C8B
:0A0EE1008C4BAF4EAE4DAD4CAC4B48
:010EEB0022E4
:100FC5006F706F71706F72717D008F000DBD0C3E7B
:100FD5000AE80A49092F082E074906DE061E057389
:100FE50005270497041603A40370031102BB02949A
:100FF500024B020B01D201B80188015D01490125AF
:04100500010500E9F8
:03119A00016D01E3
:03000B0002124698
:09124600B295856E8C856F8A3229
:020F80008F538D
:100F8200E553D394004039E4F557F556F555F55439
:100F9200E47F887E13FDFCAB57AA56A955A854C31B
:100FA2001208B75017E5572401F557E43556F556A0
:100FB200E43555F555E43554F55480D4155380C0C5
:020FC200C28CDF
:010FC400220A
:060C65008B4B8A4C894D07
:100C6B00E4F54EF552F551F550F54FE56D70030275
:100C7B000D51AB4BAA4CA94D85528285518312085D
:100C8B003475F00A84E5F07005C28C020D1A85529A
:100C9B0082855183120834FF75F0648475F007A4C4
:100CAB00FEEF75F00A84EE25F02406F54E25E024C0
:100CBB00D1F582E4340FF583E493FE740193FBC307
:100CCB0074FF9BFF74FF9EFEE49400FDE49400FC14
:100CDB00E4FB7A01F9F81210098F6EE54E25E0243A
:100CEB00D1F582E4340FF583E493FE740193FBC3D7
:100CFB0074FF9BFF74FF9EFEE49400FDE49400FCE4
:100D0B00E4FB7A01F9F8121009AF038F6FD28CABA9
:100D1B004BAA4CA94D85528285518312083475F02C
:100D2B000A8475F00A8485F06DE5522401F552E4CE
:100D3B003551F551E43550F550E4354FF54FAF6D66
:060D4B00120F80020C767D
:010D5100227F
:0C122300756D017BFF7A0F79C5020C6528
:0C122F00756D017BFF7A0F79CF020C6512
:0B123B00EF1FAC0670011E4C70F62285
:10119E00D3EF9400EE940040147D6E7C00ED1D7034
:0D11AE00011CED4C70F7EF1F70E61E80E392
:0111BB002211
:10065600EC4D6011E8497017ED33EC3304600DE49E
:10066600FCFFFEFD22E933E8330470F802080612A7
:1006760007D158046009E4CC2481500628500902A9
:10068600081028400302080DC0E0EB4A7044B98008
:1006960006D0E0FB0207FCEF4E701CBD8008EBFFA6
:1006A600EAFEE9FD80EBE98DF0A4FEE5F002073FE6
:1006B600E9CDF9EAFEEBFFEF89F0A4FCE5F0CE897F
:1006C600F0A42EFFE435F0CD89F0A42DFEE435F03C
:1006D6008067EF4E7005BD80D780C3EF8BF0A4AC6A
:1006E600F0EE8BF0A42CFCE435F0F8EF8AF0A42CA5
:1006F600E5F038FCE433CB8DF0A42CFCE5F03BF8B8
:10070600EE8AF0A42CFCE5F038F8E433CF89F0A4A7
:100716002CFCE5F038CF3400CE89F0A42FFFE5F0AD
:100726003EFEE433C98DF0A42EFEE5F039CD8AF005
:10073600A42FFFE5F03EFEE43DFD33D0E0FB50077D
:100746000BBB000F020810EC2CFCEF33FFEE33FE60
:06075600ED33FD0207E88F
:10075C0075F020800E75F010800575F0087D007E18
:10076C00007F003392D530D5031208A9EC3340102A
:10077C00EF33FFEE33FEED33FDEC33FCD5F0ED2221
:0E078C00E5F0247EA2D513CC92E7CDCEFF225D
:10079A00EDD2E7CD33EC3392D524814006E4FFFE57
:1007AA00FDFC22FCE4CFCECDCC24E0501174FF80B6
:1007BA00EDC3CC13CCCD13CDCE13CECF13CF047053
:0707CA00F030D5DE0208A9A2
:1007D100E9D2E7C933E833F892D5EDD2E7CD33EC6E
:0707E10033FC5002B2D522E7
:1007E800EC30E7100FBF000C0EBE00080DBD000472
:1007F8000BEB6014A2D5EB13FCED92E7FD2274FF1E
:10080800FCFDFEFF22E480F8A2D574FF13FC7D8076
:03081800E480EF8A
:03000000020DE509
:0C0DE500787FE4F6D8FD75816F020E2CBB
:10081B00BB010689828A83E0225002E722BBFE02DB
:09082B00E32289828A83E493220E
:10083400BB010CE58229F582E5833AF583E0225079
:1008440006E92582F8E622BBFE06E92582F8E222C3
:0D085400E58229F582E5833AF583E49322DD
:10086100EF8DF0A4A8F0CF8CF0A428CE8DF0A42EAB
:02087100FE2265
:10087300C2D5EC30E709B2D5E4C39DFDE49CFCEEA0
:1008830030E715B2D5E4C39FFFE49EFE1208C8C348
:10089300E49DFDE49CFC80031208C830D507C3E443
:0608A3009FFFE49EFE220F
:10100900C2D5E830E70FB2D5E4C39BFBE49AFAE412
:1010190099F9E498F8EC30E717B2D512103F1209A4
:1010290059E4C39BFBE49AFAE499F9E498F880033C
:1010390012095930D50DE4C39FFFE49EFEE49DFDDE
:04104900E49CFC2205
:0E08A900C3E49FFFE49EFEE49DFDE49CFC2260
:1008B700EB9FF5F0EA9E42F0E99D42F0E89C45F097
:0108C700220E
:100DF10002000EE493A3F8E493A34003F68001F20A
:100E010008DFF48029E493A3F85407240CC8C33302
:100E1100C4540F4420C8834004F456800146F6DFD1
:100E2100E4800B010204081020408090117FE47ED1
:100E3100019360BCA3FF543F30E509541FFEE493C6
:100E4100A360010ECF54C025E060A840B8E493A38D
:100E5100FAE493A3F8E493A3C8C582C8CAC583CAB8
:100E6100F0A3C8C582C8CAC583CADFE9DEE780BE70
:01119D000051
:1008C800BC000BBE0029EF8DF084FFADF022E4CC14
:1008D800F875F008EF2FFFEE33FEEC33FCEE9DECDD
:1008E800984005FCEE9DFE0FD5F0E9E4CEFD22ED23
:1008F800F8F5F0EE8420D21CFEADF075F008EF2F6D
:10090800FFED33FD4007985006D5F0F222C398FD5D
:050918000FD5F0EA22FA
:10091D0075F008758200EF2FFFEE33FECD33CDCC91
:10092D0033CCC58233C5829BED9AEC99E582984014
:10093D000CF582EE9BFEED9AFDEC99FC0FD5F0D6F1
:10094D00E4CEFBE4CDFAE4CCF9A88222B800C1B91B
:10095D000059BA002DEC8BF084CFCECDFCE5F0CB59
:10096D00F97818EF2FFFEE33FEED33FDEC33FCEB92
:10097D0033FB10D703994004EB99FB0FD8E5E4F94D
:10098D00FA227818EF2FFFEE33FEED33FDEC33FC3A
:10099D00C933C910D7059BE99A4007EC9BFCE99A2E
:1009AD00F90FD8E0E4C9FAE4CCFB2275F010EF2F73
:1009BD00FFEE33FEED33FDCC33CCC833C810D70773
:1009CD009BEC9AE899400AED9BFDEC9AFCE899F8AE
:0E09DD000FD5F0DAE4CDFBE4CCFAE4C8F92241
:00000001FF
